:1000DB002046080E11131519110E0E040404040CFE
:1000EB00041F08040201110E0E11010602011F026A
:1000FB00021F120A06020E1101011E101F0E111112
:10010B001E10110E0808080402011F0E11110E110A
:09011B00110E0E11010F11110E5D
:10008F00E4F54EE4F550E4F54FE54E75F007A42482
:10009F0008254FF8E6F5A0E4F5B07F01FE12012523
:1000AF00AF4F7401A807088002C333D8FCF5B00521
:1000BF004FE54FC3940740D10550E550C3948E4090
:0C00CF00C5054EE54EC3940A40B980B44C
:10012500E4FDFCC3ED9FEC9E5015E4FBFA0BBB0010
:0F013500010AEB647B4A70F50DBD00010C80E4FC
:010144002298
:03000000020003F8
:0C000300787FE4F6D8FD75815002004AB9
:10000F0002008FE493A3F8E493A34003F68001F278
:10001F0008DFF48029E493A3F85407240CC8C333F2
:10002F00C4540F4420C8834004F456800146F6DFC1
:10003F00E4800B01020408102040809000DBE47E76
:10004F00019360BCA3FF543F30E509541FFEE493B6
:10005F00A360010ECF54C025E060A840B8E493A37D
:10006F00FAE493A3F8E493A3C8C582C8CAC583CAA8
:10007F00F0A3C8C582C8CAC583CADFE9DEE780BE60
:0101240000DA
:00000001FF
