:100066004E6861702076616F206B79207475206907
:100076006E207468756F6E673A20002D3E000D0A7B
:010086000079
:100003001200A77BFF7A0079661200871200CFEFF8
:1000130060FA1200D58F0874E02508F5087BFF7A93
:10002300007981120087AF081200C77BFF7A00793D
:060033008412008780CD5D
:1000A700C29FD29E53890F438920758DFDD28ED270
:0400B70099D29C221C
:0800C7003099FDC2998F9922C6
:060087008B098A0A890BB7
:10008D00E4FEAB09AA0AA90B8E8275830012003912
:09009D00FF60061200C70E80E9A5
:0100A6002237
:0600CF00A298E433FF22B9
:0500D500C298AF992262
:030000000200BB40
:0C00BB00787FE4F6D8FD75810B0200038D
:10003900BB010CE58229F582E5833AF583E022507C
:1000490006E92582F8E622BBFE06E92582F8E222C6
:0D005900E58229F582E5833AF583E49322E0
:00000001FF
