:10112600434E0054320054330054340054350054B6
:101136003600543700202020202020202020202088
:101146002020202020002F323000414C3A00FF1191
:1011560026FF1129FF112CFF112FFF1132FF113528
:03116600FF11383E
:1009630075240C12136012131512106F7530007575
:1009730031007532227533007534007535237536B1
:10098300007537007538247B007A007921120CFF3B
:10099300E529652360D6852329E52175F00A84249A
:1009A30030FB7D057F011212C6E52175F00A84E54F
:1009B300F02430FF1213057F3A121305E52275F078
:1009C3000A842430FF121305E52275F00A84E5F04A
:1009D3002430FF1213057F3A121305E52375F00A3D
:1009E300842430FF121305E52375F00A84E5F0240F
:1009F30030FF1213057530007531007532267533DB
:100A0300007534007535277536007537007538283D
:100A13007B007A007925120DDD209703020AB47B4F
:100A2300FF7A11793B7D017F02121276E52575F07D
:100A330003A42451F582E43411F583E493FB740198
:100A430093FA740293F97D027F021212767F2012C9
:100A53001305E52675F00A842430FF121305E526F5
:100A630075F00A84E5F02430FF1213057F2F12136B
:100A730005E52775F00A842430FF121305E5277571
:100A8300F00A84E5F02430FF1213057BFF7A117915
:100A93004C121256E52875F00A842430FF12130510
:100AA300E52875F00A84E5F02430FF1213050209E6
:100AB3006F75300075310075322A75330075340057
:100AC30075352B75360075370075382CAB28AD2777
:100AD300AF26120B907BFF7A1179507D017F0212B2
:100AE3001276E52A75F00A842430FF121305E52AED
:100AF30075F00A84E5F02430FF1213057F2F1213DB
:100B030005E52B75F00A842430FF121305E52B75D8
:100B1300F00A84E5F02430FF1213057F2F1213052A
:100B2300E52824D0FFE43407FE7C037DE8120F267A
:100B3300EF2430FF121305E52824D0FFE43407FE29
:100B43007C007D64120F267C007D0A120F26ED24A3
:100B530030FF121305E52824D0FFE43407FE7C00A0
:100B63007D0A120F267C007D0A120F26ED2430FF2A
:100B7300121305E52824D0FFE43407FE7C007D0A28
:0D0B8300120F26ED2430FF12130502096F3A
:10121600E4FDFCC3ED9FEC9E5015E4FBFA0BBB000E
:0F122600010AEB647B4A70F50DBD00010C80E4FA
:011235002296
:1012F300EF3392B7EFA2E692B6A2E592B5A2E492DB
:02130300B42212
:0712AE001212F3D2A1C2A14C
:1012B500EFA2E392B7A2E292B6A2E192B51392B47D
:0112C5002206
:07133D00AE071FEE70FA225B
:10106F00C2A0C2A17F147E001212167F031212B506
:10107F00D2A1C2A17F057E001212167F031212B5F4
:10108F00D2A1C2A17F6412133D7F031212B5D2A168
:10109F00C2A17F017E001212167F021212B5D2A1D9
:1010AF00C2A11F7E001212167F281212367F0C1259
:0C10BF0012367F011212367F0602123634
:10123600AE07C2A01212AED2A1C2A1EF24FE600375
:101246000470077F027E000212167F2512133D22CC
:10130500AE07D2A01212AED2A1C2A17F2902133D0F
:0212C6008B2D6E
:1012C800BF01047F8080027FC0ED142FFF12123609
:0512D800AF2D0213051B
:061256008B308A31893261
:10125C00E4FDAB30AA31A9328D82758300120EC524
:09126C00FF60061213050D80E974
:011275002256
:061276008B2D8A2E892F4A
:10127C00BF01047F8080027FC0ED142FFF12123655
:09128C00AB2DAA2EA92F02125667
:0611A5008B1D8A1E891F4C
:1011AB00EF75F008A42440FF121236E4FDAB1DAA24
:1011BB001EA91F8D82758300120EC5FF1213050D1C
:0311CB00BD08EA72
:0111CE0022FE
:100003001B79099A1A3A125B187B109D1ABE18E2E3
:100013001304192413461B66198702291A4710680B
:100023001A89108A1AAB18CC10EE1B0F11301B5112
:10003300197203941A3212531873129518B51AD7FA
:1000430010F81919133B195B1B7D00211A3D125E31
:10005300188112A218C21AE4110519261348196847
:100063001B8A082B1A4B104C1A6D128E18AE1AD01D
:1000730010F11B1211331B541975039718351257BE
:100083001877129918B91ADB12FC191C133E19615F
:100093001982022418421264188410A61AC71AE897
:1000A30010E91B0A132B194B1B6D018E1A2D104ED1
:1000B3001A6F109018B11AD310F41B1513361B5670
:1000C30019770B991A381059187A129C18BC18E131
:1000D30011021B2311441B651B8602271845126757
:1000E300188712A918A918CB12ED190D132F194F40
:1000F3001B7103921A3010511A7210931AB418D547
:1001030010F71B1811391B5A197B039D1A3B105CFE
:100113001A7D129E18C118E211041B2511461B6794
:1001230019880A2A1849126B1A8B108C1AAD18CE2B
:1001330012F01910133219521B7401951A34105509
:100143001A7610971AB81AD910FA1B1B113C1B5DAB
:1001530019810022184110621A8310A41AC518E6E7
:1001630013081B2811291B4A196B038D182B124DD9
:10017300186D108F1AB018D112F31B1313341954BE
:100183001B7609971A3710581A79109A18BB1ADD7B
:1001930011011B2111421B631B8400251A441065A6
:1001A3001A8610A718C81ACA10EB1B0C112D1B4E68
:1001B3001B6F0390182E12501870129218B218D495
:1001C30012F6191611381B591B7A039B1839125B47
:1001D3001A7B109C1ABD18E11303192311451B66E2
:1001E3001B8708281A4812691A89108A1AAB18CC77
:1001F30010EE1B0F113019511B7303941832125454
:100203001A7410951AB618D712F91919133B195BFA
:100213001B7D00211A3D10611A8112A31AC318E431
:1002230013061926134819681B8A002B1A4A104B08
:10023300186C128E1AAE18CF12F11B1111321B5308
:1002430019740B9618351257187710991ABA18DBC8
:1002530012FD1B1D11411B611982022418421264F5
:10026300188410A61AC718C812EA190A132C1B4CB3
:100273001B6D018E1A2D104E1A6F109018B11AD3E0
:1002830010F4191513371B571B7801991A38125993
:100293001879129B18BB18DD1301192213441B6430
:1002A30019850A271A461267188712A918A918CBA5
:1002B30012ED190D112F1B501B7101921A3112529D
:1002C3001872129418B41AD610F71B181139195A48
:1002D3001B7C019D1A3C125D187D12A11AC11AE301
:1002E30011041B2511461B671988002A1A49106A35
:1002F3001A6B128C18AC1ACE12EF190F1331195155
:100303001B730994183412561876129818B81ADA0F
:1003130012FB191B133D1B5D19810022184110624A
:10032300188312A518C51AE711081B29134A1B6A5B
:10033300196B038D182B124D186D108F1AB018D12D
:1003430010F31B1413351B55197603981A361057DF
:100353001A78109918BA1ADC10FD19211342196280
:100363001B840A251A4410651A8610A718C81ACACE
:1003730010EB190C132E194E1B7003911A2F1050EA
:100383001A71129218B218D412F6191611381B5991
:10039300197A039C1A3A105B1A7C129D18BD1AE154
:1003A3001303192311451B66198702291A4710687D
:1003B3001A8912AA18AA1ACC10ED1B0E112F195064
:1003C3001B7209931A3310541A75129618B61AD859
:1003D30010F91B1A133B195B1B7D0021183D126199
:1003E3001A8210A31AC418E513071B2713481968A8
:1003F3001B8A002B1A4A104B186C128E18AE1AD097
:1004030010F11B12133319531B750396183412562C
:10041300187610981AB918DA10FC1B1D133E1961CF
:100423001B820A2318421264188410A61AC718E8FC
:1004330010EA1B0B112C1B4D1B6E038F1A2D104E34
:100443001A6F109018B11AD310F4191513371957DE
:100453001B79039A1A3810591A7A109B1ABC18DDA3
:1004630013011922134419641B86022718451267C6
:100473001A8710A81AA918CA12EC190C112E1B4FAF
:1004830019700B92183112531A7310941AB51AD6A5
:1004930010F71B181139195A1B7C019D1A3C105D6A
:1004A3001A7E12A21AC218E31305192513471B67F4
:1004B3001988002A1A49106A1A6B108C1AAD18CEC3
:1004C30012F01B1011311B521B7301941833125578
:1004D3001875129718B718D912FB1B1B113C1B5D1B
:1004E3001B7E0A2118411062188312A518C518E74C
:1004F30013091909132B1B4B1B6C018D1A2C124D5D
:10050300186D108F1AB018D110F31B1411351B5628
:100513001B770398183612581878129A18BA1ADCEF
:1005230010FD192111421B631B8400251A44126517
:10053300188512A718C71AC910EA190B132D194DDC
:100543001B6F09901A301251187112931AB318D4F1
:1005530012F6191611381B59197A039C183A125CB2
:10056300187C129E1ABE1AE211031B2411451B6646
:1005730019870229184712691889128B18AB1ACDEB
:1005830012EE190E133019501B7201931A321053C5
:100593001A7410951AB618D712F91919133B1B5B65
:1005A300197C0B9E183D12611A8210A318C41AE617
:1005B30011071B2813491B69198A022C1A4A106B4D
:1005C300186C128E18AE18D012F2191213341B5471
:1005D3001B7501961A351256187610981AB918DA3F
:1005E30010FC1B1D11411B611B8302241A42106363
:1005F3001A8410A51AC618E710E91B0A112B1B4C05
:10060300196D0B8F1A2E124F186F129118B11AD33E
:1006130010F41915133719571B79019A1A39125AFD
:10062300187A129C1ABC18DD130219221344196498
:100633001B8600271A4610671A8812A918A91ACB15
:1006430010EC1B0D112E1B4F197003921830125210
:100653001872129418B41AD612F7191713391959B4
:100663001B7B099C1A3C105D1A7E10A21AC31AE464
:1006730011051B26134719671B89002A1A49106A9B
:100683001A8B108C18AD1ACF10F01B1113321B529A
:1006930019730395183312551875129718B718D98B
:1006A30012FB191B133D195D1B8102221A3E1262B4
:1006B300188212A418C418E613081908132A194A31
:1006C3001B6C0B8D1A2C104D1A6E108F1AB018D18B
:1006D30010F31B14113519561B7803991A37105848
:1006E3001A79129A18BA1ADC10FD192111421963EA
:1006F3001B850226184412661A8610A71AC818C941
:1007030012EB190B132D194D1B6F01901A2F10505B
:100713001A7110921AB31AD410F51B1611371B58FD
:1007230019790B9B183A125C187C129E18C118E2B7
:1007330013041B2411451B661987022918471269E4
:100743001889108B1AAC18CD12EF1B0F11301B51E7
:100753001B7201931A3210531A74109518B61AD8D3
:1007630010F91B1A113B1B5C1B7D039E183C125E88
:10077300188110A218C31AE511061B2711481B691B
:100783001B8A0A2B184A126C186C128E18AE18D0DA
:1007930010F21B1311341B551B7603971835125790
:1007A3001A7710981AB918DA10FC1B1D11411B6235
:1007B3001B8300241A431264188412A618C61AE86D
:1007C30010E91B0A112B194C1B6E038F182D124FA6
:1007D3001A6F10901AB118D212F41914133619564D
:1007E3001B7809991A39105A1A7B109C1ABD1ADE04
:1007F30013021922134419641B8600271846126832
:10080300188812AA1AAA18CB12ED190D132F1B4F11
:1008130019700392183010521A7310941AB518D61F
:1008230012F81B1811391B5A1B7B019C1A3B105CD5
:100833001A7D10A11AC218E31305192513471B6764
:100843001B8808291A49106A1A8B108C18AD18CF07
:1008530012F1191113331B531B7401951A341255DA
:100863001875129718B718D910FB1B1C113D1B5E86
:100873001B8102231A411262188212A418C418E6BB
:1008830013081908112A1B4B196C038E1A2C124DCD
:10089300186D128F18AF1AD110F21B13113419559A
:1008A3001B7709981A3812591879129B1ABB18DC4E
:1008B30012FE1921114219631B8500261A45106681
:1008C3001A8712A818C81ACA12EB190B132D194D3F
:1008D3001B6F0190182F12511871129318B31AD568
:1008E30012F6191613381B581979039B1839105B24
:1008F3001A7C109D1ABE1AE211031B2413451B65B3
:1009030019860A28184712691889108B1AAC18CD52
:1009130010EF1B1013311B51197203941A32105329
:100923001A74109518B618D812FA191A133C1B5CCE
:10093300197D02211A3D125E188110A218C318E511
:1009430013071927134919691B8B022C1A4A104BD9
:100953001A6C108D1AAE18CF10F11B1211331B54E1
:060B90008F2D8D2E8B2F2E
:100B9600E52F75F00CA47C002DFFEC35F0FEEF255B
:100BA600E0FDEE33FC74012DF58274003CF583E420
:100BB60093F53D740193F53EAE3DAF3EEF541FF500
:100BC60039AE3DAF3EEF7805CEC313CE13D8F954F8
:100BD6000FF53AAE3DAF3EEEC3135401241DF53B6F
:100BE600AE3DAF3EEE13135401F53C74032DF58272
:100BF60074003CF583E493F53D740193F53EAE3DF8
:100C0600AF3EEF541FFDAE3DAF3EEF7805CEC313AA
:100C1600CE13D8F9540FFFE539653B7061ED6402D8
:100C2600705CE52DB4010DAB30AA31A932E539125D
:100C36000EF2802AE52DB41F15AB30AA31A9327405
:100C460001120EF2AB33AA34A935EF020CD5E52D0D
:100C560014AB30AA31A932120EF2E53C600AAB336E
:100C6600AA34A935E53A8067E53AB40C047F0180D9
:100C760004E53A04FFAB33AA34A935EF8051E52DDC
:100C8600253914AB30AA31A932120EF2AB30AA3193
:100C9600A932120EACFFD3953B500AAB33AA34A946
:100CA60035E53A802AAB30AA31A932C3EF953B121B
:100CB6000EF2E53A04C3953CAB33AA34A935120EBD
:100CC600F2AB33AA34A935120EACB40D0574011279
:100CD6000EF2AB33AA34A935120EACFFE52EC39F34
:100CE600400AAB36AA37A938E52F8009E52F14ABA1
:080CF60036AA37A938120EF2EC
:010CFE0022D3
:0F131500E4FF1211CFAD0753057FE4FF021295DD
:101295008F2D8D2E1213447FD01212DDAF2D121219
:0912A500DDAF2E1212DD02135917
:0211CF008F2D62
:1011D1001213447FD01212DDAF2D1212DD1213440F
:1011E1007FD11212DDC2011211F38F2E121359AFEA
:0111F1002ECF
:0111F20022DA
:060CFF008B2D8A2E892FC7
:100D05001213447FD01212DDE4FF1212DD121344D8
:100D15007FD11212DDD2011211F38F3BD2011211D4
:100D2500F38F3AC2011211F38F39121359533B7FD6
:100D3500E53BC4540F75F00AA4FFE53B540F2FABF8
:100D450033AA34A935120EF2533A7FE53AC4540F4B
:100D550075F00AA4FFE53A540F2FAB30AA31A9323A
:100D6500120EF2E53930E633AB36AA37A938740CE2
:100D7500120EF2E53930E504D2008002C200533983
:100D85001FE539C4540F75F00AA4FFE539540F2F38
:100D9500AB2DAA2EA92F120EF2803AAB36AA37A98F
:100DA500387418120EF253393FE539C4540F75F0F3
:100DB5000AA4FFE539540F2FAB2DAA2EA92F120E29
:100DC500F2AB2DAA2EA92F120EACC3940C5004C25F
:070DD500008002D200A20021
:010DDC0022F4
:100F7B008F148C158D168B17E51775F00A84C454D6
:100F8B00F0FFE51775F00A84E5F04FF517AE15AFD6
:100F9B00167C007D0A120F26EFC4F8540FC868FBAD
:100FAB00EEC454F048FAAE15AF167C007D0A120F52
:100FBB0026EC4AF515ED4BF516E51475F00A84C4CD
:100FCB0054F0FFE51475F00A84E5F04FF514E518BD
:100FDB00B40C094314403002034314201213447F12
:100FEB00D01212DDE4FF1212DDAF171212DDAF16B5
:0B0FFB001212DDAF141212DD021359B8
:100DDD008B2D8A2E892F1213447FD01212DD7F03A3
:100DED001212DD1213447FD11212DDD2011211F352
:100DFD00AB2DAA2EA92FEF120EF2D2011211F3ABC9
:100E0D0030AA31A932EF120EF2D2011211F3AB3327
:100E1D00AA34A935EF120EF2C2011211F3AB36AAA4
:100E2D0037A938EF120EF2121359AB2DAA2EA92F96
:100E3D00120EAC5407120EF2AB30AA31A932120EBB
:100E4D00AC543F120EF2AB30AA31A932120EACFFE8
:100E5D00C4540F75F00AA4FEEF540F2E120EF2AB10
:100E6D0033AA34A935120EAC541F120EF2AB33AAAD
:100E7D0034A935120EACFFC4540F75F00AA4FEEF61
:100E8D00540F2E120EF2AB36AA37A938120EACFF44
:0F0E9D00C4540F75F00AA4FEEF540F2E020EF28C
:101006008F198D1A8B1BE51A75F00A84C454F0FFEC
:10101600E51A75F00A84E5F04FF51AE51B75F00A36
:1010260084C454F0FFE51B75F00A84E5F04FF51B08
:10103600E51C75F00A84C454F0FFE51C75F00A84BB
:10104600E5F04FF51C1213447FD01212DD7F031218
:1010560012DDAF191212DDAF1A1212DDAF1B12121A
:09106600DDAF1C1212DD0213596A
:081169008F088B098A0A890B2B
:10117100E4F50D1213447FD01212DDAF081212DD17
:10118100E4F50DE50DC3950C5017AB09AA0AA90B9F
:10119100850D82758300120EC5FF1212DD050D80CB
:0411A100E2021359FA
:0810CB008F0E8B0F8A108911B2
:1010D3001213447FD01212DDAF0E1212DD1213442D
:1010E3007FD11212DDE4F513E51214FFE513C39F5C
:1010F3005019D2011211F3AB0FAA10A91185138253
:10110300758300EF120F04051380DDC2011211F382
:10111300AB0FAA10A911851382758300EF120F0478
:031123000213595B
:05136000D291D29022A1
:07134400D291C290C2912278
:0C132400D290D291A2909201C291A2013D
:01133000229A
:1012DD00E4FEEF339290D291C291EF25E0FF0EBE66
:0512ED0008F0121324BB
:0112F20022D9
:07134B00C290D291C2912271
:07135200D290D291C291225A
:1011F300E4FFFED290D291EF25E0FF309003430746
:1012030001C2910EBE08EC30010512134B8003128C
:02121300135274
:0112150022B6
:07135900C290D291D2902254
:03000000021331B7
:0C133100787FE4F6D8FD75813E02096368
:100EAC00BB010689828A83E0225002E722BBFE0244
:090EBC00E32289828A83E4932277
:100EC500BB010CE58229F582E5833AF583E02250E2
:100ED50006E92582F8E622BBFE06E92582F8E2222C
:0D0EE500E58229F582E5833AF583E4932246
:100EF200BB010689828A83F0225002F722BBFE01DF
:020F0200F322D8
:100F0400F8BB010DE58229F582E5833AF583E8F023
:100F1400225006E92582C8F622BBFE05E92582C8CF
:020F2400F222B7
:100F2600BC000BBE0029EF8DF084FFADF022E4CCAF
:100F3600F875F008EF2FFFEE33FEEC33FCEE9DEC78
:100F4600984005FCEE9DFE0FD5F0E9E4CEFD22EDBE
:100F5600F8F5F0EE8420D21CFEADF075F008EF2F08
:100F6600FFED33FD4007985006D5F0F222C398FDF9
:050F76000FD5F0EA2296
:00000001FF
