:100061007F037808E4F608DFFC7B007A0079087DDD
:10007100031200037FE87E031200C97F037808742E
:10008100FFF608DFFC7F037B007A0079087D03120D
:0B00910000037FE87E031200C980C559
:1000C900E4FDFCC3ED9FEC9E5015E4FBFA0BBB006D
:0F00D900010AEB647B4A70F50DBD00010C80E459
:0100E80022F5
:080003008B0B8A0C890D8D0E98
:10000B00E4F50FE50FC3950E5047AB0B7C00E50DE8
:10001B00250EF9EC350CFAC3E9950FF9EA9400FAC1
:10002B0090FFFF12009CFDE4FB74807E00A8030888
:10003B008006CEA2E713CE13D8F8FFEDF582EF556D
:10004B008224FF92A1C2A0D2A00BBB08DC050F80BB
:05005B00B2C2A2D2A216
:01006000227D
:030000000200E912
:0C00E900787FE4F6D8FD75810F020061FD
:10009C00BB010CE58229F582E5833AF583E0225019
:1000AC0006E92582F8E622BBFE06E92582F8E22263
:0D00BC00E58229F582E5833AF583E493227D
:00000001FF
