:100000000200C0BB010CE58229F582E5833AF58345
:10001000E0225006E92582F8E622BBFE06E92582A9
:10002000F8E222E58229F582E5833AF583E493221A
:10003000C29012009C7F147E0012007CE4F5097BC4
:10004000FF7A0079B012005C7FE87E0312007C0525
:1000500009C3E509648094E440E580D98B0A8A0BE2
:10006000890CE4FEAB0AAA0BA90C8E8275830012E0
:100070000003FF60061200CC0E80E922E4FDFCC301
:10008000ED9FEC9E5015E4FBFA0BBB00010AEB64FC
:10009000714A70F50DBD00010C80E422C29FD29E12
:1000A00053890F438920758DFDD28ED299D29C221F
:1000B000446F616E5F5175616E675F536F6E67006D
:1000C000787FE4F6D8FD75810C0200303099FDC2CE
:0F00D000998F9922A298E433FF22C298AF992208
:00000001FF
