:0B00C90048656C6C6F20576F6C640082
:10009400C2A08FB0C2A1D2A1EFD3940250047F02B8
:0A00A40080027F017E001200552249
:0F00AE00D2A08FB0C2A1D2A17F017E0002005567
:0500D4007F0102009411
:060030008B098A0A890B0E
:10003600E4F50CD2A0AB09AA0AA90B850C8275833C
:0E00460000120003FF60071200AE050C80E7F9
:010054002289
:100075007F0C1200947F411200AE7FE87E031200D0
:0F008500551200D47BFF7A0079C912003080FE3B
:10005500E4FDFCC3ED9FEC9E5015E4FBFA0BBB00E1
:0F006500010AEB647B4A70F50DBD00010C80E4CD
:010074002269
:030000000200BD3E
:0C00BD00787FE4F6D8FD75810C02007518
:10000300BB010CE58229F582E5833AF583E02250B2
:1000130006E92582F8E622BBFE06E92582F8E222FC
:0D002300E58229F582E5833AF583E4932216
:00000001FF
