:10113A00434E0054320054330054340054350054A2
:10114A003600543700202020202020202020202074
:10115A002020202020002F323000414C3A2000FF6E
:10116A00113AFF113DFF1140FF1143FF1146FF11D4
:04117A0049FF114CCC
:1009760075240C12136512131A1210837D107F074B
:100986001212AAD28AD2AAD2AF752F00753000757C
:10099600312275320075330075342375350075368E
:1009A600007537247B007A007921120D13E5217535
:1009B600F00A842430FB7D057F011212DBE52175E8
:1009C600F00A84E5F02430FF1200037F3A12000398
:1009D600E52275F00A842430FF120003E52275F043
:1009E6000A84E5F02430FF1200037F3A120003E583
:1009F6002375F00A842430FF120003E52375F00AFC
:100A060084E5F02430FF120003752F007530007561
:100A16003126753200753300753427753500753605
:100A2600007537287B007A007925120DF12097038F
:100A3600020AC57BFF7A11794F7D017F0212128B64
:100A4600E52575F003A42466F582E43411F583E404
:100A560093FB740193FA740293F97D027F021212DA
:100A66008B7F20120003E52675F00A842430FF12DE
:100A76000003E52675F00A84E5F02430FF12000332
:100A86007F2F120003E52775F00A842430FF120039
:100A960003E52775F00A84E5F02430FF1200037B96
:100AA600FF7A11796012126BE52875F00A842430FA
:100AB600FF120003E52875F00A84E5F0020B98752D
:100AC6002F00753000753129753200753300753485
:100AD6002A75350075360075372BAB28AD27AF263E
:100AE600120BA47BFF7A1179647D017F0212128BAF
:100AF600E52975F00A842430FF120003E52975F014
:100B06000A84E5F02430FF1200037F2F120003E56C
:100B16002A75F00A842430FF120003E52A75F00ACC
:100B260084E5F02430FF1200037F2F120003E5282E
:100B360024D0FFE43407FE7C037DE8120F3AEF244D
:100B460030FF120003E52824D0FFE43407FE7C00C2
:100B56007D64120F3A7C007D0A120F3AED2430FFB5
:100B6600120003E52824D0FFE43407FE7C007D0A4A
:100B7600120F3A7C007D0A120F3AED2430FF120064
:100B860003E52824D0FFE43407FE7C007D0A120F1B
:0E0B96003AED2430FF12000343870102098F5D
:0300130002136F66
:01136F00324B
:10122B00E4FDFCC3ED9FEC9E5015E4FBFA0BBB00F9
:0F123B00010AEB647B4A70F50DBD00010C80E4E5
:01124A002281
:0F131A00E4FF1211E4AD0753057FE4FF0212AAAE
:1012AA008F2C8D2D1213427FD01212F2AF2C1212F4
:0912BA00F2AF2D1212F2021357DB
:0211E4008F2C4E
:1011E6001213427FD01212F2AF2C1212F2121342D5
:1011F6007FD11212F2C2011212088F2D121357AFAD
:011206002DBA
:0112070022C4
:060D13008B2C8A2D892EB5
:100D19001213427FD01212F2E4FF1212F21213429E
:100D29007FD11212F2D2011212088F3AD201121295
:100D3900088F39C2011212088F38121357533A7F9C
:100D4900E53AC4540F75F00AA4FFE53A540F2FABE6
:100D590032AA33A934120F0653397FE539C4540F27
:100D690075F00AA4FFE539540F2FAB2FAA30A9312A
:100D7900120F06E53830E633AB35AA36A937740CBD
:100D8900120F06E53830E504D2008002C20053385C
:100D99001FE538C4540F75F00AA4FFE538540F2F26
:100DA900AB2CAA2DA92E120F06803AAB35AA36A96B
:100DB900377418120F0653383FE538C4540F75F0CD
:100DC9000AA4FFE538540F2FAB2CAA2DA92E120F18
:100DD90006AB2CAA2DA92E120EC0C3940C5004C226
:070DE900008002D200A2000D
:010DF00022E0
:100F8F008F148C158D168B17E51775F00A84C454C2
:100F9F00F0FFE51775F00A84E5F04FF517AE15AFC2
:100FAF00167C007D0A120F3AEFC4F8540FC868FB85
:100FBF00EEC454F048FAAE15AF167C007D0A120F3E
:100FCF003AEC4AF515ED4BF516E51475F00A84C4A5
:100FDF0054F0FFE51475F00A84E5F04FF514E518A9
:100FEF00B40C094314403002034314201213427F00
:100FFF00D01212F2E4FF1212F2AF171212F2AF1662
:0B100F001212F2AF141212F20213577B
:100DF1008B2C8A2D892E1213427FD01212F27F037F
:100E01001212F21213427FD11212F2D201121208FF
:100E1100AB2CAA2DA92EEF120F06D201121208AB8C
:100E21002FAA30A931EF120F06D201121208AB32EC
:100E3100AA33A934EF120F06C201121208AB35AA68
:100E410036A937EF120F06121357AB2CAA2DA92E74
:100E5100120EC05407120F06AB2FAA30A931120E81
:100E6100C0543F120F06AB2FAA30A931120EC0FF9A
:100E7100C4540F75F00AA4FEEF540F2E120F06ABE7
:100E810032AA33A934120EC0541F120F06AB32AA74
:100E910033A934120EC0FFC4540F75F00AA4FEEF3B
:100EA100540F2E120F06AB35AA36A937120EC0FF0A
:0F0EB100C4540F75F00AA4FEEF540F2E020F0663
:10101A008F198D1A8B1BE51A75F00A84C454F0FFD8
:10102A00E51A75F00A84E5F04FF51AE51B75F00A22
:10103A0084C454F0FFE51B75F00A84E5F04FF51BF4
:10104A00E51C75F00A84C454F0FFE51C75F00A84A7
:10105A00E5F04FF51C1213427FD01212F27F0312F1
:10106A0012F2AF191212F2AF1A1212F2AF1B1212C7
:09107A00F2AF1C1212F20213572E
:08117E008F088B098A0A890B16
:10118600E4F50D1213427FD01212F2AF081212F2DA
:10119600E4F50DE50DC3950C5017AB09AA0AA90B8A
:1011A600850D82758300120ED9FF1212F2050D808D
:0411B600E2021357E7
:0810DF008F0E8B0F8A1089119E
:1010E7001213427FD01212F2AF0E1212F2121342F3
:1010F7007FD11212F2E4F513E51214FFE513C39F33
:101107005019D201121208AB0FAA10A91185138228
:10111700758300EF120F18051380DDC20112120844
:10112700AB0FAA10A911851382758300EF120F1850
:0311370002135749
:100016001B79099A1A3A125B187B109D1ABE18E2D0
:100026001304192413461B66198702291A471068F8
:100036001A89108A1AAB18CC10EE1B0F11301B51FF
:10004600197203941A3212531873129518B51AD7E7
:1000560010F81919133B195B1B7D00211A3D125E1E
:10006600188112A218C21AE4110519261348196834
:100076001B8A082B1A4B104C1A6D128E18AE1AD00A
:1000860010F11B1211331B541975039718351257AB
:100096001877129918B91ADB12FC191C133E19614C
:1000A6001982022418421264188410A61AC71AE884
:1000B60010E91B0A132B194B1B6D018E1A2D104EBE
:1000C6001A6F109018B11AD310F41B1513361B565D
:1000D60019770B991A381059187A129C18BC18E11E
:1000E60011021B2311441B651B8602271845126744
:1000F600188712A918A918CB12ED190D132F194F2D
:100106001B7103921A3010511A7210931AB418D533
:1001160010F71B1811391B5A197B039D1A3B105CEB
:100126001A7D129E18C118E211041B2511461B6781
:1001360019880A2A1849126B1A8B108C1AAD18CE18
:1001460012F01910133219521B7401951A341055F6
:100156001A7610971AB81AD910FA1B1B113C1B5D98
:1001660019810022184110621A8310A41AC518E6D4
:1001760013081B2811291B4A196B038D182B124DC6
:10018600186D108F1AB018D112F31B1313341954AB
:100196001B7609971A3710581A79109A18BB1ADD68
:1001A60011011B2111421B631B8400251A44106593
:1001B6001A8610A718C81ACA10EB1B0C112D1B4E55
:1001C6001B6F0390182E12501870129218B218D482
:1001D60012F6191611381B591B7A039B1839125B34
:1001E6001A7B109C1ABD18E11303192311451B66CF
:1001F6001B8708281A4812691A89108A1AAB18CC64
:1002060010EE1B0F113019511B7303941832125440
:100216001A7410951AB618D712F91919133B195BE7
:100226001B7D00211A3D10611A8112A31AC318E41E
:1002360013061926134819681B8A002B1A4A104BF5
:10024600186C128E1AAE18CF12F11B1111321B53F5
:1002560019740B9618351257187710991ABA18DBB5
:1002660012FD1B1D11411B611982022418421264E2
:10027600188410A61AC718C812EA190A132C1B4CA0
:100286001B6D018E1A2D104E1A6F109018B11AD3CD
:1002960010F4191513371B571B7801991A38125980
:1002A6001879129B18BB18DD1301192213441B641D
:1002B60019850A271A461267188712A918A918CB92
:1002C60012ED190D112F1B501B7101921A3112528A
:1002D6001872129418B41AD610F71B181139195A35
:1002E6001B7C019D1A3C125D187D12A11AC11AE3EE
:1002F60011041B2511461B671988002A1A49106A22
:100306001A6B128C18AC1ACE12EF190F1331195141
:100316001B730994183412561876129818B81ADAFC
:1003260012FB191B133D1B5D198100221841106237
:10033600188312A518C51AE711081B29134A1B6A48
:10034600196B038D182B124D186D108F1AB018D11A
:1003560010F31B1413351B55197603981A361057CC
:100366001A78109918BA1ADC10FD1921134219626D
:100376001B840A251A4410651A8610A718C81ACABB
:1003860010EB190C132E194E1B7003911A2F1050D7
:100396001A71129218B218D412F6191611381B597E
:1003A600197A039C1A3A105B1A7C129D18BD1AE141
:1003B6001303192311451B66198702291A4710686A
:1003C6001A8912AA18AA1ACC10ED1B0E112F195051
:1003D6001B7209931A3310541A75129618B61AD846
:1003E60010F91B1A133B195B1B7D0021183D126186
:1003F6001A8210A31AC418E513071B271348196895
:100406001B8A002B1A4A104B186C128E18AE1AD083
:1004160010F11B12133319531B7503961834125619
:10042600187610981AB918DA10FC1B1D133E1961BC
:100436001B820A2318421264188410A61AC718E8E9
:1004460010EA1B0B112C1B4D1B6E038F1A2D104E21
:100456001A6F109018B11AD310F4191513371957CB
:100466001B79039A1A3810591A7A109B1ABC18DD90
:1004760013011922134419641B86022718451267B3
:100486001A8710A81AA918CA12EC190C112E1B4F9C
:1004960019700B92183112531A7310941AB51AD692
:1004A60010F71B181139195A1B7C019D1A3C105D57
:1004B6001A7E12A21AC218E31305192513471B67E1
:1004C6001988002A1A49106A1A6B108C1AAD18CEB0
:1004D60012F01B1011311B521B7301941833125565
:1004E6001875129718B718D912FB1B1B113C1B5D08
:1004F6001B7E0A2118411062188312A518C518E739
:1005060013091909132B1B4B1B6C018D1A2C124D49
:10051600186D108F1AB018D110F31B1411351B5615
:100526001B770398183612581878129A18BA1ADCDC
:1005360010FD192111421B631B8400251A44126504
:10054600188512A718C71AC910EA190B132D194DC9
:100556001B6F09901A301251187112931AB318D4DE
:1005660012F6191611381B59197A039C183A125C9F
:10057600187C129E1ABE1AE211031B2411451B6633
:1005860019870229184712691889128B18AB1ACDD8
:1005960012EE190E133019501B7201931A321053B2
:1005A6001A7410951AB618D712F91919133B1B5B52
:1005B600197C0B9E183D12611A8210A318C41AE604
:1005C60011071B2813491B69198A022C1A4A106B3A
:1005D600186C128E18AE18D012F2191213341B545E
:1005E6001B7501961A351256187610981AB918DA2C
:1005F60010FC1B1D11411B611B8302241A42106350
:100606001A8410A51AC618E710E91B0A112B1B4CF1
:10061600196D0B8F1A2E124F186F129118B11AD32B
:1006260010F41915133719571B79019A1A39125AEA
:10063600187A129C1ABC18DD130219221344196485
:100646001B8600271A4610671A8812A918A91ACB02
:1006560010EC1B0D112E1B4F1970039218301252FD
:100666001872129418B41AD612F7191713391959A1
:100676001B7B099C1A3C105D1A7E10A21AC31AE451
:1006860011051B26134719671B89002A1A49106A88
:100696001A8B108C18AD1ACF10F01B1113321B5287
:1006A60019730395183312551875129718B718D978
:1006B60012FB191B133D195D1B8102221A3E1262A1
:1006C600188212A418C418E613081908132A194A1E
:1006D6001B6C0B8D1A2C104D1A6E108F1AB018D178
:1006E60010F31B14113519561B7803991A37105835
:1006F6001A79129A18BA1ADC10FD192111421963D7
:100706001B850226184412661A8610A71AC818C92D
:1007160012EB190B132D194D1B6F01901A2F105048
:100726001A7110921AB31AD410F51B1611371B58EA
:1007360019790B9B183A125C187C129E18C118E2A4
:1007460013041B2411451B661987022918471269D1
:100756001889108B1AAC18CD12EF1B0F11301B51D4
:100766001B7201931A3210531A74109518B61AD8C0
:1007760010F91B1A113B1B5C1B7D039E183C125E75
:10078600188110A218C31AE511061B2711481B6908
:100796001B8A0A2B184A126C186C128E18AE18D0C7
:1007A60010F21B1311341B551B760397183512577D
:1007B6001A7710981AB918DA10FC1B1D11411B6222
:1007C6001B8300241A431264188412A618C61AE85A
:1007D60010E91B0A112B194C1B6E038F182D124F93
:1007E6001A6F10901AB118D212F41914133619563A
:1007F6001B7809991A39105A1A7B109C1ABD1ADEF1
:1008060013021922134419641B860027184612681E
:10081600188812AA1AAA18CB12ED190D132F1B4FFE
:1008260019700392183010521A7310941AB518D60C
:1008360012F81B1811391B5A1B7B019C1A3B105CC2
:100846001A7D10A11AC218E31305192513471B6751
:100856001B8808291A49106A1A8B108C18AD18CFF4
:1008660012F1191113331B531B7401951A341255C7
:100876001875129718B718D910FB1B1C113D1B5E73
:100886001B8102231A411262188212A418C418E6A8
:1008960013081908112A1B4B196C038E1A2C124DBA
:1008A600186D128F18AF1AD110F21B131134195587
:1008B6001B7709981A3812591879129B1ABB18DC3B
:1008C60012FE1921114219631B8500261A4510666E
:1008D6001A8712A818C81ACA12EB190B132D194D2C
:1008E6001B6F0190182F12511871129318B31AD555
:1008F60012F6191613381B581979039B1839105B11
:100906001A7C109D1ABE1AE211031B2413451B659F
:1009160019860A28184712691889108B1AAC18CD3F
:1009260010EF1B1013311B51197203941A32105316
:100936001A74109518B618D812FA191A133C1B5CBB
:10094600197D02211A3D125E188110A218C318E5FE
:1009560013071927134919691B8B022C1A4A104BC6
:100966001A6C108D1AAE18CF10F11B1211331B54CE
:060BA4008F2C8D2D8B2E1D
:100BAA00E52E75F00CA47C002DFFEC35F0FEEF2548
:100BBA00E0FDEE33FC74142DF58274003CF583E4F9
:100BCA0093F53C740193F53DAE3CAF3DEF541FF5F0
:100BDA0038AE3CAF3DEF7805CEC313CE13D8F954E7
:100BEA000FF539AE3CAF3DEEC3135401241DF53A5F
:100BFA00AE3CAF3DEE13135401F53B74162DF5824E
:100C0A0074003CF583E493F53C740193F53DAE3CE6
:100C1A00AF3DEF541FFDAE3CAF3DEF7805CEC31399
:100C2A00CE13D8F9540FFFE538653A7061ED6402C6
:100C3A00705CE52CB4010DAB2FAA30A931E538124E
:100C4A000F06802AE52CB41F15AB2FAA30A93174E0
:100C5A0001120F06AB32AA33A934EF020CE9E52CD4
:100C6A0014AB2FAA30A931120F06E53B600AAB324A
:100C7A00AA33A934E5398067E539B40C047F0180C9
:100C8A0004E53904FFAB32AA33A934EF8051E52CCD
:100C9A00253814AB2FAA30A931120F06AB2FAA3070
:100CAA00A931120EC0FFD3953A500AAB32AA33A922
:100CBA0034E539802AAB2FAA30A931C3EF953A120D
:100CCA000F06E53904C3953BAB32AA33A934120F98
:100CDA0006AB32AA33A934120EC0B40D0574011240
:100CEA000F06AB32AA33A934120EC0FFE52DC39FFB
:100CFA00400AAB35AA36A937E52E8009E52E14AB92
:080D0A0035AA36A937120F06C5
:010D120022BE
:05136500D291D290229C
:07134200D291C290C291227A
:0C132900D290D291A2909201C291A20138
:011335002295
:1012F200E4FEEF339290D291C291EF25E0FF0EBE51
:0513020008F0121329A0
:0113070022C3
:07134900C290D291C2912273
:07135000D290D291C291225C
:10120800E4FFFED290D291EF25E0FF309003430730
:1012180001C2910EBE08EC30010512134980031279
:02122800135061
:01122A0022A1
:07135700C290D291D2902256
:10130800EF3392B7EFA2E692B6A2E592B5A2E492C5
:02131800B422FD
:0712C300121308D2A1C2A121
:1012CA00EFA2E392B7A2E292B6A2E192B51392B468
:0112DA0022F1
:07135E00AE071FEE70FA223A
:10108300C2A0C2A17F147E0012122B7F031212CAC8
:10109300D2A1C2A17F057E0012122B7F031212CAB6
:1010A300D2A1C2A17F6412135E7F031212CAD2A11E
:1010B300C2A17F017E0012122B7F021212CAD2A19B
:1010C300C2A11F7E0012122B7F2812124B7F0C121B
:0C10D300124B7F0112124B7F0602124BE1
:10124B00AE07C2A01212C3D2A1C2A1EF24FE60034B
:10125B000470077F027E0002122B7F2512135E2281
:10000300AE07D2A01212C3D2A1C2A17F2902135EEE
:0212DB008B2C5A
:1012DD00BF01047F8080027FC0ED142FFF12124BDF
:0512ED00AF2C0200031C
:06126B008B2F8A3089314F
:10127100E4FDAB2FAA30A9318D82758300120ED9FE
:09128100FF60061200030D80E974
:01128A002241
:06128B008B2C8A2D892E38
:10129100BF01047F8080027FC0ED142FFF12124B2B
:0912A100AB2CAA2DA92E02126B40
:0611BA008B1D8A1E891F37
:1011C000EF75F008A42440FF12124BE4FDAB1DAAFA
:1011D0001EA91F8D82758300120ED9FF1200030D08
:0311E000BD08EA5D
:0111E30022E9
:05136A007F0102124B9F
:03000000021336B2
:0C133600787FE4F6D8FD75813D02097651
:100EC000BB010689828A83E0225002E722BBFE0230
:090ED000E32289828A83E4932263
:100ED900BB010CE58229F582E5833AF583E02250CE
:100EE90006E92582F8E622BBFE06E92582F8E22218
:0D0EF900E58229F582E5833AF583E4932232
:100F0600BB010689828A83F0225002F722BBFE01CA
:020F1600F322C4
:100F1800F8BB010DE58229F582E5833AF583E8F00F
:100F2800225006E92582C8F622BBFE05E92582C8BB
:020F3800F222A3
:100F3A00BC000BBE0029EF8DF084FFADF022E4CC9B
:100F4A00F875F008EF2FFFEE33FEEC33FCEE9DEC64
:100F5A00984005FCEE9DFE0FD5F0E9E4CEFD22EDAA
:100F6A00F8F5F0EE8420D21CFEADF075F008EF2FF4
:100F7A00FFED33FD4007985006D5F0F222C398FDE5
:050F8A000FD5F0EA2282
:00000001FF
