:1000000002017DAB07AA067C277D101200DC8F82DF
:100010008E837C277D10AF03AE021200DCAA04ABF6
:10002000057C037DE8AF03AE021200DC8E128F1355
:100030007C037DE8AF03AE021200DCAA04AB057CB2
:10004000007D64AF03AE021200DC8E108F117C00C5
:100050007D64AF03AE021200DCAA04AB057C007D18
:100060000AAF03AE021200DC8E0E8F0FAE02AF039A
:100070007C007D0A1200DC8C0C8D0DAF82EF9001AC
:100080008993F580C2A47F017E0012015DD2A4E5B0
:100090001390018993F580C2A37F017E0012015D58
:1000A000D2A3E51190018993F580C2A27F017E0061
:1000B00012015DD2A2E50F90018993F580C2A17F64
:1000C000017E0012015DD2A1E50D90018993F580BA
:1000D000C2A07F017E0012015DD2A022BC000BBE37
:1000E0000029EF8DF084FFADF022E4CCF875F00824
:1000F000EF2FFFEE33FEEC33FCEE9DEC984005FC59
:10010000EE9DFE0FD5F0E9E4CEFD22EDF8F5F0EE20
:100110008420D21CFEADF075F008EF2FFFED33FD0B
:100120004007985006D5F0F222C398FD0FD5F0EAAB
:10013000225389F0438905D28C858C09858A08E58C
:1001400009B58CF5750A00F50BE50B750B00F50A82
:10015000E508420BAF0BAE0A12000380DCE4FDFCA5
:10016000C3ED9FEC9E5015E4FBFA0BBB00010AEBBC
:10017000647B4A70F50DBD00010C80E422787FE4B9
:10018000F6D8FD758113020131C0F9A4B0999282AD
:03019000F8809064
:00000001FF
