:1000300012009920900F7F147E001200797F011228
:1000400000B93090FD2097EB7F147E00120079E418
:09005000FF1200B92097DC80FBCF
:10009900C29FD29E53890F438920758DFDD28ED27E
:0400A90099D29C222A
:0800B9003099FDC2998F9922D4
:060059008B088A09890AE8
:10005F00E4FEAB08AA09A90A8E8275830012000379
:09006F00FF60061200B90E80E9E1
:010078002265
:0600C100A298E433FF22C7
:0500C700C298AF992270
:10007900E4FDFCC3ED9FEC9E5015E4FBFA0BBB00BD
:0F008900010AEB64714A70F50DBD00010C80E4B3
:010098002245
:030000000200AD4E
:0C00AD00787FE4F6D8FD75810B0200306E
:10000300BB010CE58229F582E5833AF583E02250B2
:1000130006E92582F8E622BBFE06E92582F8E222FC
:0D002300E58229F582E5833AF583E4932216
:00000001FF
