:1000700012008DC2931200B5EF60FA1200BBEF7050
:0D00800002C2931200BBBF01ECD29380E8D6
:10008D00C29FD29E53890F438920758DFDD28ED28A
:04009D0099D29C2236
:0800AD003099FDC2998F9922E0
:060030008B088A09890A11
:10003600E4FEAB08AA09A90A8E82758300120003A2
:09004600FF60061200AD0E80E916
:01004F00228E
:0600B500A298E433FF22D3
:0500BB00C298AF99227C
:10005000E4FDFCC3ED9FEC9E5015E4FBFA0BBB00E6
:0F006000010AEB64714A70F50DBD00010C80E4DC
:01006F00226E
:030000000200A15A
:0C00A100787FE4F6D8FD75810B0200703A
:10000300BB010CE58229F582E5833AF583E02250B2
:1000130006E92582F8E622BBFE06E92582F8E222FC
:0D002300E58229F582E5833AF583E4932216
:00000001FF
