:0C0006000A09C0F9A4B0999282F8809019
:1000CC00D2A8D288D2AAD28AD2AF74092508F8E66F
:0400DC00F58080F635
:030003000200A256
:1000A200C0E0C0D00508E508D394094003750800F4
:0500B200D0D0D0E032C7
:030013000200B731
:1000B700C0E0C0D01508E508C394005003750809CF
:0500C700D0D0D0E032B2
:03000000020016E5
:0C001600787FE4F6D8FD75811202005DD1
:100022000200CCE493A3F8E493A34003F68001F228
:1000320008DFF48029E493A3F85407240CC8C333DF
:10004200C4540F4420C8834004F456800146F6DFAE
:10005200E4800B0102040810204080900006E47E38
:10006200019360BCA3FF543F30E509541FFEE493A3
:10007200A360010ECF54C025E060A840B8E493A36A
:10008200FAE493A3F8E493A3C8C582C8CAC583CA95
:10009200F0A3C8C582C8CAC583CADFE9DEE780BE4D
:0100120000ED
:00000001FF
