:0A01E400C0F9A4B0999282F880904F
:10000300D282D281C28075080075090FAE08AF098C
:100013007C007D0A12016374E42FF58274013EF5BE
:1000230083E493F5A0AE08AF097C007D0A12016357
:1000330074E42DF58274013CF583E493F5B07FE815
:100043007E031201B8E509150970021508D3E50905
:100053009400E508940050B49001E4E493FFF5A004
:100063008FB07FE87E031201B8D282C281D280753D
:100073000800750914E5094508700B9001E493FF26
:10008300F5A08FB08032AE08AF097C007D0A120163
:100093006374E42FF58274013EF583E493F5A0AE17
:1000A30008AF097C007D0A12016374E42DF58274A4
:1000B300013CF583E493F5B07FE87E031201B8E5D4
:1000C30009150970021508D3E5099400E5089400A1
:1000D30050A3E5099001E493F5A0F5B07FE87E0312
:1000E3001201B8C282D281D280750800750905E574
:1000F300094508700B9001E493FFF5A08FB080329F
:10010300AE08AF097C007D0A12016374E42FF58207
:1001130074013EF583E493F5A0AE08AF097C007D3E
:100123000A12016374E42DF58274013CF583E493B0
:10013300F5B07FE87E031201B8E5091509700215D1
:1001430008D3E5099400E508940050A3E50990015C
:10015300E493F5A0F5B07FE87E031201B802000333
:1001B800E4FDFCC3ED9FEC9E5015E4FBFA0BBB007D
:0F01C800010AEB647B4A70F50DBD00010C80E469
:0101D7002205
:030000000201D822
:0C01D800787FE4F6D8FD75810902000371
:10016300BC000BBE0029EF8DF084FFADF022E4CC80
:10017300F875F008EF2FFFEE33FEEC33FCEE9DEC49
:10018300984005FCEE9DFE0FD5F0E9E4CEFD22ED8F
:10019300F8F5F0EE8420D21CFEADF075F008EF2FD9
:1001A300FFED33FD4007985006D5F0F222C398FDCA
:0501B3000FD5F0EA2267
:00000001FF
