:0A00F100C0F9A4B0999282F8809043
:10006100E4F508E50875F00A849000F193F509E5D7
:100071000875F00A84E5F093F50A7B007A007909A6
:100081007D021200037FF47E011200C50508E50818
:07009100D3946340CE80C947
:1000C500E4FDFCC3ED9FEC9E5015E4FBFA0BBB0071
:0F00D500010AEB647B4A70F50DBD00010C80E45D
:0100E40022F9
:080003008B0B8A0C890D8D0E98
:10000B00E4F50FE50FC3950E5047AB0B7C00E50DE8
:10001B00250EF9EC350CFAC3E9950FF9EA9400FAC1
:10002B0090FFFF120098FDE4FB74807E00A803088C
:10003B008006CEA2E713CE13D8F8FFEDF582EF556D
:10004B008224FF92A1C2A0D2A00BBB08DC050F80BB
:05005B00B2C2A2D2A216
:01006000227D
:030000000200E516
:0C00E500787FE4F6D8FD75810F02006101
:10009800BB010CE58229F582E5833AF583E022501D
:1000A80006E92582F8E622BBFE06E92582F8E22267
:0D00B800E58229F582E5833AF583E4932281
:00000001FF
