:100064004E6861702076616F206B79207475206909
:100074006E207468756F6E673A20002D3E000D0A7D
:01008400007B
:1000A500C29FD29E758920758DFDD28ED299D29C24
:0100B5002228
:0800C2003099FDC2998F9922CB
:060085008B088A09890ABC
:10008B00E4FEAB08AA09A90A8E8275830012003719
:09009B00FF60061200C20E80E9AC
:0100A4002239
:0600CA00A298E433FF22BE
:0500D000C298AF992267
:100003001200A57BFF7A0079641200851200CAEF03
:1000130060FA1200D0AD0774E02DFD7BFF7A007902
:100023007F120085AF051200C27BFF7A007982122E
:04003300008580CFF5
:030000000200B645
:0C00B600787FE4F6D8FD75810A02000393
:10003700BB010CE58229F582E5833AF583E022507E
:1000470006E92582F8E622BBFE06E92582F8E222C8
:0D005700E58229F582E5833AF583E49322E2
:00000001FF
