:0A046D0054203D200066203D2000D1
:100003001202C77BFF7A04796D7D017F011203F130
:100013007BFF7A0479727D017F021203F15389F029
:10002300438909E4F58CF58A20B2FD30B2FDD28C08
:1000330020B2FDC28CAF8C7508008F09E5097509E4
:1000430000F508AF8AEF4209E50925E0F509E5085F
:1000530033F508FEAF097C277D101201A4EF24308D
:10006300FB7D057F01120428AE08AF097C277D10B4
:100073001201A47E037FE8CFCDCFCECCCE1201A454
:10008300EF2430FF120451AE08AF097C037DE81260
:1000930001A47E007F64CFCDCFCECCCE1201A4EFDE
:1000A3002430FF120451AE08AF097C007D641201B5
:1000B300A47E007F0ACFCDCFCECCCE1201A4EF24F5
:1000C30030FF120451AE08AF097C007D0A1201A46F
:1000D300ED2430FF120451AE08AF09AB07AA06E4C2
:1000E300F9F87F407E427D0FFC1203238E0A8F0BAB
:1000F3007C277D101201A4EF2430FB7D057F0212C3
:100103000428AE0AAF0B7C277D101201A47E037F67
:10011300E8CFCDCFCECCCE1201A4EF2430FF120412
:1001230051AE0AAF0B7C037DE81201A47E007F640D
:10013300CFCDCFCECCCE1201A4EF2430FF12045189
:10014300AE0AAF0B7C007D641201A47E007F0ACF50
:10015300CDCFCECCCE1201A4EF2430FF120451AE8A
:100163000AAF0B7C007D0A1201A4ED2430FF1204B8
:04017300510200260F
:10043F00EF339287EFA2E69286A2E59285A2E4922D
:02044F00842205
:0704100012043FD281C281FA
:10041700EFA2E39287A2E29286A2E19285139284E9
:0104270022B2
:07047700AE071FEE70FA2230
:1002C700C280C2817F147E001203D17F03120417FC
:1002D700D281C2817F057E001203D17F03120417EA
:1002E700D281C2817F641204777F03120417D281FF
:1002F700C2817F017E001203D17F02120417D281CF
:10030700C2811F7E001203D17F281203917F0C1236
:0C03170003917F011203917F0602039105
:10039100AE07C280120410D281C281EF24FE600335
:1003A1000470077F027E000203D17F2512047722A9
:10045100AE07D280120410D281C2817F29020477B3
:020428008B0C3B
:10042A00BF01047F8080027FC0ED142FFF12039169
:05043A00AF0C020451AB
:0603B1008B0F8A10891178
:1003B700E4FDAB0FAA10A9118D8275830012017796
:0903C700FF60061204510D80E9EB
:0103D000220A
:0603F1008B0C8A0D890E41
:1003F700BF01047F8080027FC0ED142FFF1203919D
:09040700AB0CAA0DA90E0203B111
:060367008B128A138914B9
:10036D00EF75F008A42440FF120391E4FDAB12AA2F
:10037D0013A9148D82758300120177FF1204510D9C
:03038D00BD08EABE
:01039000224A
:05047E007F0102039163
:1003D100E4FDFCC3ED9FEC9E5015E4FBFA0BBB0062
:0F03E100010AEB647B4A70F50DBD00010C80E44E
:0103F00022EA
:0300000002046196
:0C046100787FE4F6D8FD758114020003DA
:10017700BB010CE58229F582E5833AF583E022503D
:1001870006E92582F8E622BBFE06E92582F8E22287
:0D019700E58229F582E5833AF583E49322A1
:1001A400BC000BBE0029EF8DF084FFADF022E4CC3F
:1001B400F875F008EF2FFFEE33FEEC33FCEE9DEC08
:1001C400984005FCEE9DFE0FD5F0E9E4CEFD22ED4E
:1001D400F8F5F0EE8420D21CFEADF075F008EF2F98
:1001E400FFED33FD4007985006D5F0F222C398FD89
:0501F4000FD5F0EA2226
:10032300C2D5E830E70FB2D5E4C39BFBE49AFAE405
:1003330099F9E498F8EC30E717B2D5120359120291
:1003430035E4C39BFBE49AFAE499F9E498F8800353
:1003530012023530D50DE4C39FFFE49EFEE49DFDFC
:04036300E49CFC22F8
:1001F90075F008758200EF2FFFEE33FECD33CDCCBD
:1002090033CCC58233C5829BED9AEC99E58298403F
:100219000CF582EE9BFEED9AFDEC99FC0FD5F0D61C
:10022900E4CEFBE4CDFAE4CCF9A88222B800C1B946
:100239000059BA002DEC8BF084CFCECDFCE5F0CB84
:10024900F97818EF2FFFEE33FEED33FDEC33FCEBBD
:1002590033FB10D703994004EB99FB0FD8E5E4F978
:10026900FA227818EF2FFFEE33FEED33FDEC33FC65
:10027900C933C910D7059BE99A4007EC9BFCE99A59
:10028900F90FD8E0E4C9FAE4CCFB2275F010EF2F9E
:10029900FFEE33FEED33FDCC33CCC833C810D7079E
:1002A9009BEC9AE899400AED9BFDEC9AFCE899F8D9
:0E02B9000FD5F0DAE4CDFBE4CCFAE4C8F9226C
:00000001FF
