:0F00920012003B7F647E0012007212000380F1A7
:10003B00E4F5A0F508E5A025E04401F5A07F2C7EB2
:10004B00011200720508E508C3940840E8E4F508BE
:10005B00E5A025E0F5A07F2C7E011200720508E5D6
:06006B0008C3940840EAFE
:01007100226C
:1000030075A080E4F5087F2C7E01120072E5A0C381
:10001300134480F5A00508E508C3940840E8E4F517
:1000230008E5A0C313F5A07F2C7E0112007205081A
:07003300E508C3940840EA50
:01003A0022A3
:10007200E4FDFCC3ED9FEC9E5015E4FBFA0BBB00C4
:0F008200010AEB647B4A70F50DBD00010C80E4B0
:01009100224C
:030000000200A15A
:0C00A100787FE4F6D8FD7581080200921B
:00000001FF
